:1000000053C000006EC000006CC000006AC0000059
:1000100068C0000066C0000064C0000062C000004C
:1000200060C000005EC000005CC000005AC000005C
:1000300058C0000056C0000054C0000052C000006C
:1000400050C000004EC0000066C000004AC0000062
:1000500048C0000046C0000044C0000042C000008C
:1000600040C000003EC000003CC000003AC000009C
:1000700038C0000036C0000034C0000032C00000AC
:1000800030C000002EC000002CC0000056017901D5
:100090009C01BF01E20105022B02590264026F02BA
:1000A0007A02850290029D0211241FBECFEFD0E19B
:1000B000DEBFCDBF11E0A0E0B1E0E4E2F0E100E09E
:1000C0000BBF02C007900D92A032B107D9F723E011
:1000D000A0E2B1E001C01D92A434B207E1F78AD4D6
:1000E0009FC78ECF40E052EC61E070E080E05DC0E1
:1000F000089505E011E0C3E1D1E01F930F93DF9372
:10010000CF931F9298D080E046D00F900F900F9021
:100110000F900F90F2CF1F920F920FB60F921124F3
:100120000F900FBE0F901F9018950895FC0110823C
:1001300011821282138214821582168217822087FE
:100140003187428753877587648781E00895CF930D
:10015000DF9300D0CDB7DEB71A82198281110FC0AC
:10016000613011F481E08A83E0E0F1E081818983EC
:10017000BE016F5F7F4F808190D081E001C080E041
:100180000F900F90DF91CF9108956091020180E070
:10019000DEDF81E00895811105C0E0E0F1E06181DA
:1001A00080817EC1089581E0089581111CC0EEE236
:1001B000F3E0108241835283638374831682178233
:1001C0001582108620E032E040E050E060E271E00D
:1001D00080E293E0ABDF8EE293E086D391E0882368
:1001E00019F090E001C090E0892F0895CF92DF923E
:1001F000EF92FF920F931F9369017A0181110BC057
:1002000004E610E020E030E0A6018EE293E078D32F
:10021000882341F004C0C12CD12C760103C0C12C2D
:10022000D12C7601C701B6011F910F91FF90EF907D
:10023000DF90CF900895CF93DF93CDB7DEB7DA95F7
:100240000FB6F894DEBF0FBECDBF9E01285F3E4FB4
:10025000CA5FDE4F48815981C650D14060E071E0ED
:10026000CE010196F8D39C01990F440B550BBE01AA
:100270006F5F7F4FCB5FDE4F8881C550D140B6DFC7
:10028000D3950FB6F894DEBF0FBECDBFDF91CF91EF
:1002900008954BDF7ADF87CF089590E0873091058E
:1002A00008F0FDC0FC01EA5BFF4FCCC3DB011196F7
:1002B0008C91119781110DC02AB381E090E00C90D0
:1002C00002C0880F991F0A94E2F7809582238ABBA7
:1002D0000895813009F0E3C02AB381E090E0FB018A
:1002E000008002C0880F991F0A94E2F7822B8ABB14
:1002F0000895DB0111968C91119781110DC027B3E0
:1003000081E090E00C9002C0880F991F0A94E2F7F8
:100310008095822387BB0895813009F0C0C027B340
:1003200081E090E0FB01008002C0880F991F0A94D1
:10033000E2F7822B87BB0895DB0111968C91119710
:1003400081110DC024B381E090E00C9002C0880FB1
:10035000991F0A94E2F78095822384BB0895813027
:1003600009F09DC024B381E090E0FB01008002C051
:10037000880F991F0A94E2F7822B84BB0895DB0152
:1003800011968C91119781110DC021B381E090E0FD
:100390000C9002C0880F991F0A94E2F7809582237F
:1003A00081BB0895813009F07AC021B381E090E0EB
:1003B000FB01008002C0880F991F0A94E2F7822B8C
:1003C00081BB0895DB0111968C91119781110DC0AD
:1003D00022B181E090E00C9002C0880F991F0A942E
:1003E000E2F78095822382B90895813009F057C0E1
:1003F00022B181E090E0FB01008002C0880F991FCC
:100400000A94E2F7822B82B90895DB0111968C9150
:10041000119781110FC0E1E6F0E0208181E090E0CA
:100420000C9002C0880F991F0A94E2F780958223EE
:1004300080830895813099F5E1E6F0E0208181E044
:1004400090E0DB010C9002C0880F991F0A94E2F73C
:10045000822B80830895FB018181811110C0E4E625
:10046000F0E0208181E090E0DB010C9002C0880F79
:10047000991F0A94E2F78095822380830895813042
:1004800071F4E4E6F0E0208181E090E0DB010C9083
:1004900002C0880F991F0A94E2F7822B8083089587
:1004A00090E08730910508F054C0FC01E35BFF4FFA
:1004B000C9C22BB381E090E002C0880F991F6A95F2
:1004C000E2F782278BBB089528B381E090E002C059
:1004D000880F991F6A95E2F7822788BB089525B394
:1004E00081E090E002C0880F991F6A95E2F78227A9
:1004F00085BB089522B381E090E002C0880F991F68
:100500006A95E2F7822782BB089523B181E090E0EB
:1005100002C0880F991F6A95E2F7822783B9089570
:10052000E2E6F0E0208181E090E002C0880F991FB0
:100530006A95E2F7822780830895E5E6F0E020815E
:1005400081E090E002C0880F991F6A95E2F7822748
:1005500080830895CF93DF93EC01892B09F4CAC0FF
:100560008885882319F0813059F14FC089819A819B
:10057000AB81BC81880F991FAA1FBB1F880F991FD1
:10058000AA1FBB1F9C01AD01220F331F441F551F23
:10059000220F331F441F551F60E074E284EF90E088
:1005A0002FD2BA01A9014150510961097109BB2734
:1005B000A72F962F852F8093900049B9599825C071
:1005C00089819A81AB81BC81880F991FAA1FBB1FAB
:1005D000880F991FAA1FBB1F9C01AD01220F331F5B
:1005E000441F551F60E074E284EF90E009D2BA0125
:1005F000A9014150510961097109BB27A72F962F05
:10060000852F8093900049B9599A8D818230F9F0F5
:1006100028F4882341F0813081F036C0833009F11D
:10062000843049F131C05298E5E9F0E0808184607E
:10063000808380818260808327C05298E5E9F0E062
:1006400080818B7F808380818D7F80831DC05298C5
:10065000E5E9F0E080818B7F808380818260808308
:1006600013C05298E5E9F0E0808184608083808146
:100670008D7F808309C0529AE5E9F0E08081846033
:1006800080838081826080838E81882319F081300D
:1006900039F00BC0E5E9F0E080818F7E808305C0F2
:1006A000E5E9F0E08081806180838F81813071F0A5
:1006B00018F08230A9F020C0E5E9F0E080818F7B5E
:1006C000808380818F7D808380E017C0E5E9F0E042
:1006D00080818064808380818F7D808380E00DC0F5
:1006E000E5E9F0E08081806480838081806280839E
:1006F00080E003C081E001C080E0DF91CF910895E8
:10070000CF93DF93EC01892B09F4E8C08885882317
:1007100019F0813081F159C089819A81AB81BC8106
:10072000880F991FAA1FBB1F880F991FAA1FBB1FE5
:100730009C01AD01220F331F441F551F220F331F91
:10074000441F551F60E074E284EF90E059D1BA0174
:10075000A9014150510961097109BB27A72F962FA3
:10076000852F8093980040939900EBE9F0E0808119
:100770008D7F80832AC089819A81AB81BC81880F5B
:10078000991FAA1FBB1F880F991FAA1FBB1F9C017F
:10079000AD01220F331F441F551F60E074E284EF48
:1007A00090E02ED1BA01A9014150510961097109A6
:1007B000BB27A72F962F852F8093980040939900F1
:1007C000EBE9F0E08081826080838D81823039F1B5
:1007D00028F4882341F08130A1F04AC0833069F1C8
:1007E0008430C9F145C0EAE9F0E080818B7F8083E5
:1007F000EDE9F0E080818460808380818260808385
:1008000037C0EAE9F0E080818B7F8083EDE9F0E09A
:1008100080818B7F808380818D7F808329C0EAE9FE
:10082000F0E080818B7F8083EDE9F0E080818B7F39
:1008300080838081826080831BC0EAE9F0E0808150
:100840008B7F8083EDE9F0E080818460808380810C
:100850008D7F80830DC0EAE9F0E080818460808331
:10086000EDE9F0E080818460808380818260808314
:100870008E81882319F0813039F00BC0EDE9F0E06A
:1008800080818F7E808305C0EDE9F0E0808180610A
:1008900080838F81813071F018F08230A9F020C000
:1008A000EDE9F0E080818F7B808380818F7D808384
:1008B00080E017C0EDE9F0E0808180648083808172
:1008C0008F7D808380E00DC0EDE9F0E08081806461
:1008D000808380818062808380E003C081E001C0EA
:1008E00080E0DF91CF910895FC012081222319F04F
:1008F000213019F003C02EDE01C002DF80E0089530
:10090000EF92FF920F931F93CF93DF93DC015596E5
:100910001C9255971E965C934E931D9752965C932E
:100920004E93519715968C911597843051F41796E4
:100930008C911797811108C0062F172F60E070E087
:1009400005C000E010E002C000E010E08C918823B8
:1009500031F0813009F046C0452BF1F443C0452BFE
:1009600009F440C0C62FD72FF80180E090E05D9BCE
:10097000FECF0115110519F428812CB902C0208180
:100980002CB901962196329651962D913C91529711
:100990008217930760F326C0462F572F780120E077
:1009A00030E0EBE9F0E06CE970E0908195FFFDCF7D
:1009B0000115110529F4EA018881EB01888304C03F
:1009C000E7018881EB0188832F5F3F4F4F5F5F4FC7
:1009D000D2E0ED0EF11C51968D919C915297281703
:1009E000390718F380E0DF91CF911F910F91FF90AD
:1009F000EF9008954EDC76DB7CDB80E090E008959C
:100A0000A1E21A2EAA1BBB1BFD010DC0AA1FBB1F12
:100A1000EE1FFF1FA217B307E407F50720F0A21B84
:100A2000B30BE40BF50B661F771F881F991F1A94F1
:100A300069F760957095809590959B01AC01BD011B
:100A4000CF010895EE0FFF1F0024001C0BBE07907E
:100A5000F691E02D09940F931F93CF93DF93CDB7B9
:100A6000DEB72E970FB6F894DEBF0FBECDBF8C0158
:100A7000FA0186E08C831A83098377FF02C060E065
:100A800070E8CB0101979E838D83A901BF01CE0140
:100A9000019619D04D815E8157FD0AC02F8138859E
:100AA000421753070CF49A01F801E20FF31F10826A
:100AB0002E960FB6F894DEBF0FBECDBFDF91CF915B
:100AC0001F910F9108952F923F924F925F926F92D4
:100AD0007F928F929F92AF92BF92CF92DF92EF92CE
:100AE000FF920F931F93CF93DF93CDB7DEB72B9772
:100AF0000FB6F894DEBF0FBECDBF6C017B018A013B
:100B0000FC0117821682838181FFBFC1CE0101964D
:100B10003C01F6019381F70193FD859193FF81914B
:100B20007F01882309F4ADC1853239F493FD8591A5
:100B300093FF81917F01853221F4B60190E0D6D1F7
:100B4000E8CF912C212C312CFFE1F315D8F08B321A
:100B500079F038F4803279F08332A1F4232D2061CA
:100B60001DC08D3261F0803369F4232D216016C0E1
:100B7000832D8260382EE32DE4603E2E2AC0F32DB3
:100B8000F8601DC037FC2DC020ED280F2A3040F042
:100B90008E32B9F436FC75C1232D2064322E19C073
:100BA00036FE06C08AE0989E200D1124922E11C0B8
:100BB000EAE02E9E200D1124222EF32DF0623F2E0E
:100BC00008C08C3621F4832D8068382E02C0883608
:100BD00041F4F70193FD859193FF81917F0181118C
:100BE000B3CF982F9F7D9554933028F40C5F1F4FFF
:100BF0009FE399830DC0833631F0833771F08335DD
:100C000009F055C020C0F801808189830E5F1F4F15
:100C100088248394912C530112C02801F2E04F0ED6
:100C2000511CF801A080B18036FE03C0692D70E030
:100C300002C06FEF7FEFC5014ED14C018201F32D51
:100C4000FF773F2E15C0280122E0420E511CF8010B
:100C5000A080B18036FE03C0692D70E002C06FEF46
:100C60007FEFC5012DD14C01F32DF0683F2E82019D
:100C700033FC19C0822D90E088169906A0F4B601C5
:100C800080E290E033D12A94F5CFF50137FC8591CD
:100C900037FE81915F01B60190E028D121102A949E
:100CA00021E0821A91088114910479F7E1C0843619
:100CB00011F0893639F5F80137FE07C0608171817E
:100CC000828193810C5F1F4F08C060817181072E64
:100CD000000C880B990B0E5F1F4FF32DFF763F2EF4
:100CE00097FF09C090958095709561957F4F8F4FC4
:100CF0009F4FF0683F2E2AE030E0A30133D1882EC9
:100D0000861844C0853731F4232D2F7EB22E2AE079
:100D100030E025C0932D997FB92E8F36C1F018F49D
:100D2000883579F0AEC0803719F0883721F0A9C036
:100D3000E92FE061BE2EB4FE0DC0FB2DF460BF2E86
:100D400009C034FE0AC0292F2660B22E06C028E052
:100D500030E005C020E130E002C020E132E0F801DF
:100D6000B7FE07C060817181828193810C5F1F4F44
:100D700006C06081718180E090E00E5F1F4FA3018B
:100D8000F1D0882E8618FB2DFF773F2E36FE0DC042
:100D9000232D2E7FA22E891458F434FE0BC032FC72
:100DA00009C0832D8E7EA82E05C0B82CA32C03C0AD
:100DB000B82C01C0B92CA4FE0FC0FE01E80DF11D36
:100DC0008081803321F49A2D997EA92E09C0A2FE3C
:100DD00006C0B394B39404C08A2D867809F0B39406
:100DE000A3FC10C0A0FE06C0B21480F4280C922C04
:100DF0009B180DC0B21458F4B60180E290E076D092
:100E0000B394F8CFB21418F42B1802C0982C212CEC
:100E1000A4FE0FC0B60180E390E068D0A2FE16C029
:100E2000A1FC03C088E790E002C088E590E0B6012D
:100E30000CC08A2D867851F0A1FE02C08BE201C061
:100E400080E2A7FC8DE2B60190E050D0891430F426
:100E5000B60180E390E04AD09A94F8CF8A94F301E7
:100E6000E80DF11D8081B60190E040D08110F6CFF1
:100E7000222009F44ECEB60180E290E037D02A94C9
:100E8000F7CFF6018681978102C08FEF9FEF2B96F7
:100E90000FB6F894DEBF0FBECDBFDF91CF911F918B
:100EA0000F91FF90EF90DF90CF90BF90AF909F9009
:100EB0008F907F906F905F904F903F902F9008950C
:100EC000FC010590615070400110D8F78095909515
:100ED0008E0F9F1F0895FC0161507040019001101A
:100EE000D8F7809590958E0F9F1F08950F931F93AD
:100EF000CF93DF93FB01238121FD03C08FEF9FEF91
:100F00002CC022FF16C046815781248135814217AB
:100F1000530744F4A081B1819D012F5F3F4F31837E
:100F200020838C93268137812F5F3F4F3783268321
:100F300014C08B01EC01FB010084F185E02D0995C3
:100F4000892BE1F6D80116968D919C911797019601
:100F500017969C938E931697CE01DF91CF911F9198
:100F60000F910895FA01AA27283051F1203181F11B
:100F7000E8946F936E7F6E5F7F4F8F4F9F4FAF4FA1
:100F8000B1E03ED0B4E03CD0670F781F891F9A1FB4
:100F9000A11D680F791F8A1F911DA11D6A0F711D68
:100FA000811D911DA11D20D009F468943F912AE074
:100FB000269F11243019305D3193DEF6CF0108955C
:100FC000462F4770405D4193B3E00FD0C9F7F6CF8D
:100FD000462F4F70405D4A3318F0495D31FD405255
:100FE000419302D0A9F7EACFB4E0A69597958795EB
:100FF00077956795BA95C9F70097610571050895CA
:101000009B01AC010A2E0694579547953795279575
:10101000BA95C9F7620F731F841F951FA01D08950D
:04102000F894FFCF72
:10102400000001010048656C6C6F2C20576F726CD6
:101034006421007561727430203A2025730A00001F
:00000001FF
