:1000000053C000006FC000006DC000006BC0000056
:1000100069C0000067C0000065C0000063C0000048
:1000200061C000005FC000005DC000005BC0000058
:1000300059C0000057C0000055C0000053C0000068
:1000400051C000004FC0000070C000004BC0000055
:1000500049C0000047C0000045C0000043C0000088
:1000600041C000003FC000003DC000003BC0000098
:1000700039C0000037C0000035C0000033C00000A8
:1000800031C000002FC000002DC0000062018501BA
:10009000A801CB01EE0111023702650270027B025A
:1000A000860291029C02A90211241FBECFEFD0E16B
:1000B000DEBFCDBF11E0A0E0B1E0E4E7F2E100E097
:1000C0000BBF02C007900D92A833B107D9F723E008
:1000D000A8E3B1E001C01D92AD35B207E1F74DD400
:1000E0000C9438098DCF40E052EC61E070E080E084
:1000F00066C008950DE111E0CBE2D1E080E055D07B
:100100002FEF89E698E1215080409040E1F700C050
:1001100000001F930F93DF93CF931F9298D00F90FF
:100120000F900F900F900F90E9CF1F920F920FB684
:100130000F9211240F900FBE0F901F9018950895E5
:10014000FC0110821182128213821482158216829F
:10015000178220873187428753877587648781E0BC
:100160000895CF93DF9300D0CDB7DEB71A821982FE
:1001700081110FC0613011F481E08A83E0E0F1E089
:1001800081818983BE016F5F7F4F808192D081E042
:1001900001C080E00F900F90DF91CF9108956091A2
:1001A000020180E0DEDF81E00895811105C0E0E01A
:1001B000F1E06181808180C1089581E0089581111D
:1001C0001EC0E6E4F3E010824183528363837483AC
:1001D00016821782158282E08087118620E032E045
:1001E00040E050E068E371E088E393E0A9DF86E453
:1001F00093E0BCD191E0882319F090E001C090E039
:10020000892F0895CF92DF92EF92FF920F931F9361
:1002100069017A0181110BC004E610E020E030E0B2
:10022000A60186E493E03ED3882341F004C0C12CAC
:10023000D12C760103C0C12CD12C7601C701B601A7
:100240001F910F91FF90EF90DF90CF900895CF9383
:10025000DF93CDB7DEB7DA950FB6F894DEBF0FBEE9
:10026000CDBF9E01285F3E4FCA5FDE4F4881598156
:10027000C650D14060E071E0CE01019614D59C01DA
:10028000990F440B550BBE016F5F7F4FCB5FDE4F65
:100290008881C550D140B6DFD3950FB6F894DEBF44
:1002A0000FBECDBFDF91CF91089549DF78DF85CFB5
:1002B000089590E08730910508F0FDC0FC01EA5BED
:1002C000FF4FE8C4DB0111968C91119781110DC08D
:1002D0002AB381E090E00C9002C0880F991F0A9425
:1002E000E2F7809582238ABB0895813009F0E3C04C
:1002F0002AB381E090E0FB01008002C0880F991FC3
:100300000A94E2F7822B8ABB0895DB0111968C9147
:10031000119781110DC027B381E090E00C9002C0CD
:10032000880F991F0A94E2F78095822387BB08956E
:10033000813009F0C0C027B381E090E0FB0100806C
:1003400002C0880F991F0A94E2F7822B87BB089599
:10035000DB0111968C91119781110DC024B381E0BE
:1003600090E00C9002C0880F991F0A94E2F78095E4
:10037000822384BB0895813009F09DC024B381E0BD
:1003800090E0FB01008002C0880F991F0A94E2F7F9
:10039000822B84BB0895DB0111968C9111978111FA
:1003A0000DC021B381E090E00C9002C0880F991F2E
:1003B0000A94E2F78095822381BB0895813009F089
:1003C0007AC021B381E090E0FB01008002C0880F79
:1003D000991F0A94E2F7822B81BB0895DB011196E5
:1003E0008C91119781110DC022B181E090E00C90A9
:1003F00002C0880F991F0A94E2F78095822382B980
:100400000895813009F057C022B181E090E0FB01EE
:10041000008002C0880F991F0A94E2F7822B82B9EC
:100420000895DB0111968C91119781110FC0E1E6BF
:10043000F0E0208181E090E00C9002C0880F991FCD
:100440000A94E2F78095822380830895813099F59C
:10045000E1E6F0E0208181E090E0DB010C9002C059
:10046000880F991F0A94E2F7822B80830895FB017D
:100470008181811110C0E4E6F0E0208181E090E00C
:10048000DB010C9002C0880F991F0A94E2F7809557
:10049000822380830895813071F4E4E6F0E02081C6
:1004A00081E090E0DB010C9002C0880F991F0A9454
:1004B000E2F7822B8083089590E08730910508F061
:1004C00054C0FC01E35BFF4FE5C32BB381E090E038
:1004D00002C0880F991F6A95E2F782278BBB0895A7
:1004E00028B381E090E002C0880F991F6A95E2F777
:1004F000822788BB089525B381E090E002C0880F71
:10050000991F6A95E2F7822785BB089522B381E09F
:1005100090E002C0880F991F6A95E2F7822782BB9C
:10052000089523B181E090E002C0880F991F6A9579
:10053000E2F7822783B90895E2E6F0E0208181E0C6
:1005400090E002C0880F991F6A95E2F782278083A6
:100550000895E5E6F0E0208181E090E002C0880F98
:10056000991F6A95E2F7822780830895CF92DF92E0
:10057000EF92FF920F931F93CF93DF93009709F4AD
:1005800077C1DC012C91222309F478C1213009F0D4
:1005900071C105E011E074C189819A81AB81BC8190
:1005A000880F991FAA1FBB1F880F991FAA1FBB1F67
:1005B000BC01CD01660F771F881F991F660F771F3B
:1005C000881F991FD9D29B01AC0160E074E284E7D7
:1005D0009BE43ED220E030E040E05FE3D4D1A0D203
:1005E000D8011896ED91FC911997C72ED82EE92EB7
:1005F000FF24C0821A96ED91FC911B97608312969E
:10060000ED91FC91139780818D7F808336C0898125
:100610009A81AB81BC81880F991FAA1FBB1F880FCD
:10062000991FAA1FBB1FBC01CD01660F771F881F32
:10063000991FA2D29B01AC0160E074E284E79BE4C5
:1006400007D220E030E040E05FE39DD169D2D801DD
:100650001896ED91FC911997C72ED82EE92EFF24FC
:10066000C0821A96ED91FC911B9760831296ED91D2
:10067000FC9113978081826080838D818230D9F1D3
:1006800028F4882351F08130F9F079C0833009F4DF
:1006900049C0843009F45DC072C0D8011496ED9150
:1006A000FC91159780818B7F80831696ED91FC914C
:1006B00017978081846080831696ED91FC9117973F
:1006C0008081826080835BC0D8011496ED91FC919B
:1006D000159780818B7F80831696ED91FC911797FB
:1006E00080818B7F80831696ED91FC911797808196
:1006F0008D7F808344C0D8011496ED91FC911597AD
:1007000080818B7F80831696ED91FC911797808175
:100710008B7F80831696ED91FC9117978081826084
:1007200080832DC0D8011496ED91FC91159780819E
:100730008B7F80831696ED91FC9117978081846062
:1007400080831696ED91FC91179780818D7F808331
:1007500016C0D8011496ED91FC91159780818460A4
:1007600080831696ED91FC91179780818460808339
:100770001696ED91FC9117978081826080838E811F
:10078000882319F0813051F011C0D8011696ED91EF
:10079000FC91179780818F7E808308C0D8011696C0
:1007A000ED91FC9117978081806180838F818130EA
:1007B000A1F018F0823009F12FC0D8011696ED9102
:1007C000FC91179780818F7B80831696ED91FC9129
:1007D000179780818F7D80831FC0D8011696ED9179
:1007E000FC9117978081806480831696ED91FC912F
:1007F000179780818F7D80830FC0D8011696ED9169
:10080000FC9117978081806480831696ED91FC910E
:1008100017978081806280838885813071F018F01D
:100820008230A9F029C0D8011496ED91FC9115975A
:1008300080818061808380E02CC0D8011496ED9186
:10084000FC91159780818860808380E022C0D80168
:100850001496ED91FC9115978081886080831496A1
:10086000ED91FC91159780818061808380E011C0BB
:1008700081E00FC081E00DC080E00BC001E111E01C
:10088000EC018985882309F487CE813009F4BFCE35
:10089000F4CEDF91CF911F910F91FF90EF90DF90F9
:1008A000CF900895AF92BF92CF92DF92EF92FF92D6
:1008B0000F931F93CF93DF937C01EC011E8A5F8718
:1008C0004E875B8B4A8B8881882319F0813021F019
:1008D00006C001E111E005C005E011E002C000E042
:1008E00010E0E114F104D9F1F7018581843041F47D
:1008F0008781811108C0C62ED72E60E070E005C048
:10090000C12CD12C02C0C12CD12C452B51F1A62ECB
:10091000B72ED60120E030E0E801EA81FB8190812A
:1009200095FFFDCFC114D10439F4E801E881F981C4
:10093000E5018881808305C0E801E881F9818C9117
:1009400080832F5F3F4FDFEFAD1ABD0A1296F7018C
:100950004289538924173507F8F280E003C081E00B
:1009600001C080E0DF91CF911F910F91FF90EF9038
:10097000DF90CF90BF90AF90089597DCB4DBBADBE7
:1009800080E090E008955058BB27AA270ED048C1B8
:1009900039D130F03ED120F031F49F3F11F41EF4F4
:1009A0002EC10EF4E095E7FB24C1E92F4AD180F374
:1009B000BA17620773078407950718F071F49EF55C
:1009C00062C10EF4E0950B2EBA2FA02D0B01B901D8
:1009D00090010C01CA01A0011124FF27591B99F0B5
:1009E000593F50F4503E68F11A16F040A22F232FC1
:1009F000342F4427585FF3CF469537952795A79511
:100A0000F0405395C9F77EF41F16BA0B620B730BB7
:100A1000840BBAF09150A1F0FF0FBB1F661F771F28
:100A2000881FC2F70EC0BA0F621F731F841F48F4DD
:100A3000879577956795B795F7959E3F08F0B3CF63
:100A40009395880F08F09927EE0F9795879508954D
:100A50000CD0E6C0DED040F0D5D030F021F45F3FBE
:100A600019F0C7C0511110C1CAC0EBD098F3992337
:100A7000C9F35523B1F3951B550BBB27AA27621762
:100A80007307840738F09F5F5F4F220F331F441FA7
:100A9000AA1FA9F333D00E2E3AF0E0E830D09150DF
:100AA0005040E695001CCAF729D0FE2F27D0660FCC
:100AB000771F881FBB1F261737074807AB07B0E80B
:100AC00009F0BB0B802DBF01FF2793585F4F2AF021
:100AD0009E3F510568F08DC0D7C05F3FECF3983E54
:100AE000DCF3869577956795B795F7959F5FC9F77E
:100AF000880F911D9695879597F90895E1E0660F07
:100B0000771F881FBB1F621773078407BA0720F07F
:100B1000621B730B840BBA0BEE1F88F7E0950895E8
:100B200098D088F09F5790F0B92F9927B751A0F02F
:100B3000D1F0660F771F881F991F1AF0BA95C9F771
:100B400012C0B13081F09FD0B1E008959CC0672FF2
:100B5000782F8827B85F39F0B93FCCF38695779521
:100B60006795B395D9F73EF490958095709561950A
:100B70007F4F8F4F9F4F0895E89409C097FB3EF435
:100B800090958095709561957F4F8F4F9F4F9923DA
:100B9000A9F0F92F96E9BB279395F6958795779558
:100BA0006795B795F111F8CFFAF4BB0F11F460FF18
:100BB0001BC06F5F7F4F8F4F9F4F16C0882311F070
:100BC00096E911C0772321F09EE8872F762F05C084
:100BD000662371F096E8862F70E060E02AF09A951F
:100BE000660F771F881FDAF7880F9695879597F914
:100BF000089597F99F6780E870E060E008959FEF9F
:100C000080EC089500240A941616170618060906A3
:100C1000089500240A941216130614060506089572
:100C2000092E0394000C11F4882352F0BB0F40F4FA
:100C3000BF2B11F460FF04C06F5F7F4F8F4F9F4F3A
:100C4000089557FD9058440F551F59F05F3F71F0BC
:100C50004795880F97FB991F61F09F3F79F0879523
:100C60000895121613061406551FF2CF4695F1DFAC
:100C700008C0161617061806991FF1CF869571053C
:100C8000610508940895E894BB2766277727CB0170
:100C900097F90895EE0FFF1F0024001C0BBE07906C
:100CA000F691E02D09940F931F93CF93DF93CDB767
:100CB000DEB72E970FB6F894DEBF0FBECDBF8C0106
:100CC000FA0186E08C831A83098377FF02C060E013
:100CD00070E8CB0101979E838D83A901BF01CE01EE
:100CE000019619D04D815E8157FD0AC02F8138854C
:100CF000421753070CF49A01F801E20FF31F108218
:100D00002E960FB6F894DEBF0FBECDBFDF91CF9108
:100D10001F910F9108952F923F924F925F926F9281
:100D20007F928F929F92AF92BF92CF92DF92EF927B
:100D3000FF920F931F93CF93DF93CDB7DEB72B971F
:100D40000FB6F894DEBF0FBECDBF6C017B018A01E8
:100D5000FC0117821682838181FFBFC1CE010196FB
:100D60003C01F6019381F70193FD859193FF8191F9
:100D70007F01882309F4ADC1853239F493FD859153
:100D800093FF81917F01853221F4B60190E0D6D1A5
:100D9000E8CF912C212C312CFFE1F315D8F08B32C8
:100DA00079F038F4803279F08332A1F4232D206178
:100DB0001DC08D3261F0803369F4232D216016C08F
:100DC000832D8260382EE32DE4603E2E2AC0F32D61
:100DD000F8601DC037FC2DC020ED280F2A3040F0F0
:100DE0008E32B9F436FC75C1232D2064322E19C021
:100DF00036FE06C08AE0989E200D1124922E11C066
:100E0000EAE02E9E200D1124222EF32DF0623F2EBB
:100E100008C08C3621F4832D8068382E02C08836B5
:100E200041F4F70193FD859193FF81917F01811139
:100E3000B3CF982F9F7D9554933028F40C5F1F4FAC
:100E40009FE399830DC0833631F0833771F083358A
:100E500009F055C020C0F801808189830E5F1F4FC3
:100E600088248394912C530112C02801F2E04F0E84
:100E7000511CF801A080B18036FE03C0692D70E0DE
:100E800002C06FEF7FEFC5014ED14C018201F32DFF
:100E9000FF773F2E15C0280122E0420E511CF801B9
:100EA000A080B18036FE03C0692D70E002C06FEFF4
:100EB0007FEFC5012DD14C01F32DF0683F2E82014B
:100EC00033FC19C0822D90E088169906A0F4B60173
:100ED00080E290E033D12A94F5CFF50137FC85917B
:100EE00037FE81915F01B60190E028D121102A944C
:100EF00021E0821A91088114910479F7E1C08436C7
:100F000011F0893639F5F80137FE07C0608171812B
:100F1000828193810C5F1F4F08C060817181072E11
:100F2000000C880B990B0E5F1F4FF32DFF763F2EA1
:100F300097FF09C090958095709561957F4F8F4F71
:100F40009F4FF0683F2E2AE030E0A30133D1882E76
:100F5000861844C0853731F4232D2F7EB22E2AE027
:100F600030E025C0932D997FB92E8F36C1F018F44B
:100F7000883579F0AEC0803719F0883721F0A9C0E4
:100F8000E92FE061BE2EB4FE0DC0FB2DF460BF2E34
:100F900009C034FE0AC0292F2660B22E06C028E000
:100FA00030E005C020E130E002C020E132E0F8018D
:100FB000B7FE07C060817181828193810C5F1F4FF2
:100FC00006C06081718180E090E00E5F1F4FA30139
:100FD000F1D0882E8618FB2DFF773F2E36FE0DC0F0
:100FE000232D2E7FA22E891458F434FE0BC032FC20
:100FF00009C0832D8E7EA82E05C0B82CA32C03C05B
:10100000B82C01C0B92CA4FE0FC0FE01E80DF11DE3
:101010008081803321F49A2D997EA92E09C0A2FEE9
:1010200006C0B394B39404C08A2D867809F0B394B3
:10103000A3FC10C0A0FE06C0B21480F4280C922CB1
:101040009B180DC0B21458F4B60180E290E076D03F
:10105000B394F8CFB21418F42B1802C0982C212C9A
:10106000A4FE0FC0B60180E390E068D0A2FE16C0D7
:10107000A1FC03C088E790E002C088E590E0B601DB
:101080000CC08A2D867851F0A1FE02C08BE201C00F
:1010900080E2A7FC8DE2B60190E050D0891430F4D4
:1010A000B60180E390E04AD09A94F8CF8A94F30195
:1010B000E80DF11D8081B60190E040D08110F6CF9F
:1010C000222009F44ECEB60180E290E037D02A9477
:1010D000F7CFF6018681978102C08FEF9FEF2B96A5
:1010E0000FB6F894DEBF0FBECDBFDF91CF911F9139
:1010F0000F91FF90EF90DF90CF90BF90AF909F90B7
:101100008F907F906F905F904F903F902F900895B9
:10111000FC010590615070400110D8F780959095C2
:101120008E0F9F1F0895FC016150704001900110C7
:10113000D8F7809590958E0F9F1F08950F931F935A
:10114000CF93DF93FB01238121FD03C08FEF9FEF3E
:101150002CC022FF16C04681578124813581421759
:10116000530744F4A081B1819D012F5F3F4F31832C
:1011700020838C93268137812F5F3F4F37832683CF
:1011800014C08B01EC01FB010084F185E02D099571
:10119000892BE1F6D80116968D919C9117970196AF
:1011A00017969C938E931697CE01DF91CF911F9146
:1011B0000F910895FA01AA27283051F1203181F1C9
:1011C000E8946F936E7F6E5F7F4F8F4F9F4FAF4F4F
:1011D000B1E03ED0B4E03CD0670F781F891F9A1F62
:1011E000A11D680F791F8A1F911DA11D6A0F711D16
:1011F000811D911DA11D20D009F468943F912AE022
:10120000269F11243019305D3193DEF6CF01089509
:10121000462F4770405D4193B3E00FD0C9F7F6CF3A
:10122000462F4F70405D4A3318F0495D31FD405202
:10123000419302D0A9F7EACFB4E0A6959795879598
:1012400077956795BA95C9F7009761057105089577
:101250009B01AC010A2E0694579547953795279523
:10126000BA95C9F7620F731F841F951FA01D0895BB
:04127000F894FFCF20
:1012740000000101009C009B009A009D00980099C9
:10128400002C002B002A0095009000290048656C72
:101294006C6F2C20576F726C64210075617274300E
:0812A400203A2025730A000026
:00000001FF
