S00F00004156522D434C492E7372656327
S113000045C000004BC0000049C0000047C00000CC
S113001045C0000043C0000041C000003FC00000D4
S11300203DC000003BC0000039C0000037C00000E4
S113003035C0000033C0000031C000002FC00000F4
S11300402DC000002BC000002CC0000027C0000001
S113005025C0000023C0000021C000001FC0000014
S11300601DC000001BC0000019C0000017C0000024
S113007015C0000013C0000011C000000FC0000034
S11300800DC000000BC0000009C0000011241FBEF9
S1130090CFEFD0E1DEBFCDBF11D016C0B1CF0895F0
S11300A0FFCF1F920F920FB60F9211240F900FBE25
S11300B00F901F9018950895FECF0895FDDFEFDF90
S10F00C0EFDF80E090E00895F894FFCF9B
S9030000FC
