:1000000045C0000060C000005EC000005CC0000091
:100010005AC0000058C0000056C0000054C0000084
:1000200052C0000050C000004EC000004CC0000094
:100030004AC0000048C0000046C0000044C00000A4
:1000400042C0000040C0000056C000003CC000009C
:100050003AC0000038C0000036C0000034C00000C4
:1000600032C0000030C000002EC000002CC00000D4
:100070002AC0000028C0000026C0000024C00000E4
:1000800022C0000020C000001EC0000011241FBEBE
:10009000CFEFD0E1DEBFCDBF11E0A0E0B1E0E2E9FB
:1000A000F0E100E00BBF02C007900D92A236B1074D
:1000B000D9F723E0A2E6B1E001C01D92A738B2074C
:1000C000E1F773D3E4C79CCF40E052EC61E070E00D
:1000D00080E053C0089507E411E0C5E5D1E01F9327
:1000E0000F93DF93CF931F9290D00F900F900F90AC
:1000F0000F900F90F4CF1F920F920FB60F92112412
:100100000F900FBE0F901F9018950895FC0110825C
:10011000118212821382148215821682178220871E
:100120003187428753877587648781E00895CF932D
:10013000DF9300D0CDB7DEB71A82198281110FC0CC
:10014000613011F481E08A83E0E0F1E0818189830C
:10015000BE016F5F7F4F80818AD081E001C080E067
:100160000F900F90DF91CF9108956091020180E090
:10017000DEDF81E0089581E0089581111EC0E0E78F
:10018000F3E0108241835283638374831682178263
:10019000158282E08087118620E032E040E050E066
:1001A00062E671E082E693E0B1DF80E793E09AD007
:1001B00091E0882319F090E001C090E0892F089524
:1001C000CF92DF92EF92FF920F931F9369017A0112
:1001D00081110BC004E610E020E030E0A60180E7CA
:1001E00093E07DD2882341F004C0C12CD12C76014C
:1001F00003C0C12CD12C7601C701B6011F910F910C
:10020000FF90EF90DF90CF900895CF93DF93CDB71D
:10021000DEB7DA950FB6F894DEBF0FBECDBF9E01F4
:10022000285F3E4FCA5FDE4F48815981C650D1409A
:1002300060E071E0CE01019645D49C01990F440B1A
:10024000550BBE016F5F7F4FCB5FDE4F8881C5507E
:10025000D140B6DFD3950FB6F894DEBF0FBECDBF49
:10026000DF91CF91089551DF80DF85CF089590E031
:10027000DB0111962C911197211119C0FC01EE0F91
:10028000FF1FE80FF91FEE0FFF1FEB5FFE4F0190FE
:10029000F081E02D208181E090E00C9002C0880F79
:1002A000991F0A94E2F78095822380830895213074
:1002B000C1F4FC01EE0FFF1FE80FF91FEE0FFF1F47
:1002C000EB5FFE4F0190F081E02D208181E090E016
:1002D000DB010C9002C0880F991F0A94E2F7822B71
:1002E00080830895CF92DF92EF92FF920F931F9336
:1002F000CF93DF93FC01C081D0E0009709F4E3C104
:100300008C018185882321F0813009F441C07BC0B4
:1003100081819281A381B481880F991FAA1FBB1F7D
:10032000880F991FAA1FBB1FBC01CD01660F771F45
:10033000881F991F660F771F881F991F35D39B0150
:10034000AC0160E074E284E79BE49AD220E030E004
:1003500040E05FE330D2FCD2FE01EE0FFF1FEC0F56
:10036000FD1FEE0FFF1FEE0FFF1FE15DFE4FA0858B
:10037000B185C72ED82EE92EFF24CC92A285B38555
:100380006C930280F381E02D80818D7F80833BC060
:1003900081819281A381B481880F991FAA1FBB1FFD
:1003A000880F991FAA1FBB1FBC01CD01660F771FC5
:1003B000881F991FF9D29B01AC0160E074E284E7C9
:1003C0009BE45ED220E030E040E05FE3F4D1C0D2B5
:1003D000FE01EE0FFF1FEC0FFD1FEE0FFF1FEE0FD4
:1003E000FF1FE15DFE4FA085B185C72ED82EE92EF7
:1003F000FF24CC92A285B3856C930280F381E02D1B
:10040000808182608083F8018581823009F445C053
:1004100028F4882351F0813021F192C0833009F40F
:1004200058C0843009F471C08BC0FE01EE0FFF1F6D
:10043000EC0FFD1FEE0FFF1FEE0FFF1FE15DFE4FE4
:10044000A481B5818C918B7F8C93A681B7818C918F
:1004500084608C930680F781E02D808182608083A8
:100460006FC0FE01EE0FFF1FEC0FFD1FEE0FFF1F11
:10047000EE0FFF1FE15DFE4FA481B5818C918B7F54
:100480008C93A681B7818C918B7F8C930680F781AA
:10049000E02D80818D7F808353C0FE01EE0FFF1F12
:1004A000EC0FFD1FEE0FFF1FEE0FFF1FE15DFE4F74
:1004B000A481B5818C918B7F8C93A681B7818C911F
:1004C0008B7F8C930680F781E02D80818260808312
:1004D00037C0FE01EE0FFF1FEC0FFD1FEE0FFF1FD9
:1004E000EE0FFF1FE15DFE4FA481B5818C918B7FE4
:1004F0008C93A681B7818C9184608C930680F78160
:10050000E02D80818D7F80831BC0FE01EE0FFF1FD9
:10051000EC0FFD1FEE0FFF1FEE0FFF1FE15DFE4F03
:10052000A481B5818C9184608C93A681B7818C91D4
:1005300084608C930680F781E02D808182608083C7
:10054000F8018681882319F0813099F023C0FE01DB
:10055000EE0FFF1FEC0FFD1FEE0FFF1FEE0FFF1F33
:10056000E15DFE4F0680F781E02D80818F7E8083E4
:1005700011C0FE01EE0FFF1FEC0FFD1FEE0FFF1F5E
:10058000EE0FFF1FE15DFE4F0680F781E02D8081B9
:1005900080618083F80187818130D9F018F0823042
:1005A00079F144C0FE01EE0FFF1FEC0FFD1FEE0FAF
:1005B000FF1FEE0FFF1FE15DFE4FA681B7818C91FB
:1005C0008F7B8C930680F781E02D80818F7D8083E7
:1005D0002DC0FE01EE0FFF1FEC0FFD1FEE0FFF1FE2
:1005E000EE0FFF1FE15DFE4FA681B7818C91806405
:1005F0008C930680F781E02D80818F7D808316C0EB
:10060000FE01EE0FFF1FEC0FFD1FEE0FFF1FEE0FA1
:10061000FF1FE15DFE4FA681B7818C9180648C93B2
:100620000680F781E02D808180628083F8018085DB
:100630008130B1F018F0823029F147C0CE01880F27
:10064000991FC80FD91FCC0FDD1FCC0FDD1FC15D57
:10065000DE4FEC81FD8180818061808380E036C047
:10066000CE01880F991FC80FD91FCC0FDD1FCC0FEB
:10067000DD1FC15DDE4FEC81FD818081886080835C
:1006800080E024C09E01220F331FF901EC0FFD1FF3
:10069000EE0FFF1FEE0FFF1FE15DFE4F0480F5819F
:1006A000E02D808188608083C20FD31FCC0FDD1FB7
:1006B000CC0FDD1FC15DDE4FEC81FD81808180614B
:1006C000808380E003C081E001C080E0DF91CF91B2
:1006D0001F910F91FF90EF90DF90CF900895AF9210
:1006E000BF92CF92DF92EF92FF920F931F93CF931F
:1006F000DF938C01EC01888190E01E8A5F874E8732
:100700005B8B4A8B2D81243041F42F81211108C04D
:10071000E62EF72E60E070E005C0E12CF12C02C05F
:10072000E12CF12C452BA9F1A62EB72ED70120E004
:1007300030E0BC01660F771F680F791F660F771FC7
:10074000660F771F615D7E4F6B01D2E0CD0ED11C2D
:10075000E601E881F981908195FFFDCFE114F10474
:1007600039F4EB01E881F981E5018881808305C0D6
:10077000EB01E881F9818C9180832F5F3F4FDFEFA0
:10078000AD1ABD0A1296F80142895389241735071C
:10079000F8F280E0DF91CF911F910F91FF90EF90E1
:1007A000DF90CF90BF90AF9008955DDD8DDC93DC3E
:1007B00080E090E008955058BB27AA270ED048C18A
:1007C00039D130F03ED120F031F49F3F11F41EF4C6
:1007D0002EC10EF4E095E7FB24C1E92F4AD180F346
:1007E000BA17620773078407950718F071F49EF52E
:1007F00062C10EF4E0950B2EBA2FA02D0B01B901AA
:1008000090010C01CA01A0011124FF27591B99F086
:10081000593F50F4503E68F11A16F040A22F232F92
:10082000342F4427585FF3CF469537952795A795E2
:10083000F0405395C9F77EF41F16BA0B620B730B89
:10084000840BBAF09150A1F0FF0FBB1F661F771FFA
:10085000881FC2F70EC0BA0F621F731F841F48F4AF
:10086000879577956795B795F7959E3F08F0B3CF35
:100870009395880F08F09927EE0F9795879508951F
:100880000CD0E6C0DED040F0D5D030F021F45F3F90
:1008900019F0C7C0511110C1CAC0EBD098F3992309
:1008A000C9F35523B1F3951B550BBB27AA27621734
:1008B0007307840738F09F5F5F4F220F331F441F79
:1008C000AA1FA9F333D00E2E3AF0E0E830D09150B1
:1008D0005040E695001CCAF729D0FE2F27D0660F9E
:1008E000771F881FBB1F261737074807AB07B0E8DD
:1008F00009F0BB0B802DBF01FF2793585F4F2AF0F3
:100900009E3F510568F08DC0D7C05F3FECF3983E25
:10091000DCF3869577956795B795F7959F5FC9F74F
:10092000880F911D9695879597F90895E1E0660FD8
:10093000771F881FBB1F621773078407BA0720F051
:10094000621B730B840BBA0BEE1F88F7E0950895BA
:1009500098D088F09F5790F0B92F9927B751A0F001
:10096000D1F0660F771F881F991F1AF0BA95C9F743
:1009700012C0B13081F09FD0B1E008959CC0672FC4
:10098000782F8827B85F39F0B93FCCF386957795F3
:100990006795B395D9F73EF49095809570956195DC
:1009A0007F4F8F4F9F4F0895E89409C097FB3EF407
:1009B00090958095709561957F4F8F4F9F4F9923AC
:1009C000A9F0F92F96E9BB279395F695879577952A
:1009D0006795B795F111F8CFFAF4BB0F11F460FFEA
:1009E0001BC06F5F7F4F8F4F9F4F16C0882311F042
:1009F00096E911C0772321F09EE8872F762F05C056
:100A0000662371F096E8862F70E060E02AF09A95F0
:100A1000660F771F881FDAF7880F9695879597F9E5
:100A2000089597F99F6780E870E060E008959FEF70
:100A300080EC089500240A94161617061806090675
:100A4000089500240A941216130614060506089544
:100A5000092E0394000C11F4882352F0BB0F40F4CC
:100A6000BF2B11F460FF04C06F5F7F4F8F4F9F4F0C
:100A7000089557FD9058440F551F59F05F3F71F08E
:100A80004795880F97FB991F61F09F3F79F08795F5
:100A90000895121613061406551FF2CF4695F1DF7E
:100AA00008C0161617061806991FF1CF869571050E
:100AB000610508940895E894BB2766277727CB0142
:100AC00097F908950F931F93CF93DF93CDB7DEB7B8
:100AD0002E970FB6F894DEBF0FBECDBF8C01FA0182
:100AE00086E08C831A83098377FF02C060E070E898
:100AF000CB0101979E838D83A901BF01CE01019691
:100B000019D04D815E8157FD0AC02F81388542176B
:100B100053070CF49A01F801E20FF31F10822E968E
:100B20000FB6F894DEBF0FBECDBFDF91CF911F91FE
:100B30000F9108952F923F924F925F926F927F9202
:100B40008F929F92AF92BF92CF92DF92EF92FF92DD
:100B50000F931F93CF93DF93CDB7DEB72B970FB6CD
:100B6000F894DEBF0FBECDBF6C017B018A01FC0192
:100B700017821682838181FFBFC1CE0101963C019D
:100B8000F6019381F70193FD859193FF81917F0198
:100B9000882309F4ADC1853239F493FD859193FF23
:100BA00081917F01853221F4B60190E0D6D1E8CF62
:100BB000912C212C312CFFE1F315D8F08B3279F0F8
:100BC00038F4803279F08332A1F4232D20611DC0E6
:100BD0008D3261F0803369F4232D216016C0832D9E
:100BE0008260382EE32DE4603E2E2AC0F32DF8609B
:100BF0001DC037FC2DC020ED280F2A3040F08E326A
:100C0000B9F436FC75C1232D2064322E19C036FE8E
:100C100006C08AE0989E200D1124922E11C0EAE0B1
:100C20002E9E200D1124222EF32DF0623F2E08C09F
:100C30008C3621F4832D8068382E02C0883641F42A
:100C4000F70193FD859193FF81917F018111B3CFCE
:100C5000982F9F7D9554933028F40C5F1F4F9FE38E
:100C600099830DC0833631F0833771F0833509F0F5
:100C700055C020C0F801808189830E5F1F4F8824F2
:100C80008394912C530112C02801F2E04F0E511CA5
:100C9000F801A080B18036FE03C0692D70E002C06B
:100CA0006FEF7FEFC5014ED14C018201F32DFF772D
:100CB0003F2E15C0280122E0420E511CF801A080F1
:100CC000B18036FE03C0692D70E002C06FEF7FEF88
:100CD000C5012DD14C01F32DF0683F2E820133FC6C
:100CE00019C0822D90E088169906A0F4B60180E222
:100CF00090E033D12A94F5CFF50137FC859137FE8A
:100D000081915F01B60190E028D121102A9421E061
:100D1000821A91088114910479F7E1C0843611F0A8
:100D2000893639F5F80137FE07C06081718182810B
:100D300093810C5F1F4F08C060817181072E000CEA
:100D4000880B990B0E5F1F4FF32DFF763F2E97FFF9
:100D500009C090958095709561957F4F8F4F9F4FFB
:100D6000F0683F2E2AE030E0A30133D1882E8618A8
:100D700044C0853731F4232D2F7EB22E2AE030E097
:100D800025C0932D997FB92E8F36C1F018F4883580
:100D900079F0AEC0803719F0883721F0A9C0E92F6B
:100DA000E061BE2EB4FE0DC0FB2DF460BF2E09C065
:100DB00034FE0AC0292F2660B22E06C028E030E09B
:100DC00005C020E130E002C020E132E0F801B7FECA
:100DD00007C060817181828193810C5F1F4F06C0C3
:100DE0006081718180E090E00E5F1F4FA301F1D020
:100DF000882E8618FB2DFF773F2E36FE0DC0232D43
:100E00002E7FA22E891458F434FE0BC032FC09C088
:100E1000832D8E7EA82E05C0B82CA32C03C0B82C21
:100E200001C0B92CA4FE0FC0FE01E80DF11D8081A8
:100E3000803321F49A2D997EA92E09C0A2FE06C006
:100E4000B394B39404C08A2D867809F0B394A3FCBC
:100E500010C0A0FE06C0B21480F4280C922C9B187F
:100E60000DC0B21458F4B60180E290E076D0B3948D
:100E7000F8CFB21418F42B1802C0982C212CA4FE21
:100E80000FC0B60180E390E068D0A2FE16C0A1FCBE
:100E900003C088E790E002C088E590E0B6010CC08E
:100EA0008A2D867851F0A1FE02C08BE201C080E25B
:100EB000A7FC8DE2B60190E050D0891430F4B60161
:100EC00080E390E04AD09A94F8CF8A94F301E80D39
:100ED000F11D8081B60190E040D08110F6CF222034
:100EE00009F44ECEB60180E290E037D02A94F7CFD5
:100EF000F6018681978102C08FEF9FEF2B960FB688
:100F0000F894DEBF0FBECDBFDF91CF911F910F913F
:100F1000FF90EF90DF90CF90BF90AF909F908F9019
:100F20007F906F905F904F903F902F900895FC01BD
:100F30000590615070400110D8F7809590958E0F04
:100F40009F1F0895FC016150704001900110D8F777
:100F5000809590958E0F9F1F08950F931F93CF93A9
:100F6000DF93FB01238121FD03C08FEF9FEF2CC096
:100F700022FF16C0468157812481358142175307CD
:100F800044F4A081B1819D012F5F3F4F31832083C5
:100F90008C93268137812F5F3F4F3783268314C080
:100FA0008B01EC01FB010084F185E02D0995892B73
:100FB000E1F6D80116968D919C9117970196179698
:100FC0009C938E931697CE01DF91CF911F910F9135
:100FD0000895FA01AA27283051F1203181F1E894CF
:100FE0006F936E7F6E5F7F4F8F4F9F4FAF4FB1E01C
:100FF0003ED0B4E03CD0670F781F891F9A1FA11D17
:10100000680F791F8A1F911DA11D6A0F711D811D17
:10101000911DA11D20D009F468943F912AE0269FDC
:1010200011243019305D3193DEF6CF010895462F3B
:101030004770405D4193B3E00FD0C9F7F6CF462F1C
:101040004F70405D4A3318F0495D31FD4052419385
:1010500002D0A9F7EACFB4E0A69597958795779542
:101060006795BA95C9F700976105710508959B01C9
:10107000AC010A2E06945795479537952795BA9552
:10108000C9F7620F731F841F951FA01D0895F89460
:02109000FFCF90
:1010920000000101003A003B0039003700380036F9
:1010A20000340035003300310032003000220023CA
:1010B2000021006100620020006400650063002CD2
:1010C200002B002A009500900029009C009B009AAA
:1010D200009D009800990048656C6C6F2C20576F3A
:1010E200726C6421007561727430203A2025730A93
:0210F2000000FC
:00000001FF
