:1000000045C0000061C000005FC000005DC000008E
:100010005BC0000059C0000057C0000055C0000080
:1000200053C0000051C000004FC000004DC0000090
:100030004BC0000049C0000047C0000045C00000A0
:1000400043C0000041C000007FC000003DC0000070
:10005000A4C0000039C0000037C0000035C0000057
:1000600033C0000031C000002FC000002DC00000D0
:100070002BC0000029C0000027C0000025C00000E0
:1000800023C0000021C000001FC0000011241FBEBB
:10009000CFEFD0E1DEBFCDBF11E0A0E0B1E0E6E4FC
:1000A000F6E100E00BBF02C007900D92A237B10746
:1000B000D9F722E0A2E7B1E001C01D92A839B2074A
:1000C000E1F72BD60C94210B9BCF40E052EC61E082
:1000D00070E080E0F5D1789408951F9281E08F93CD
:1000E00082EC8F931F9287E491E09F938F931F92EE
:1000F0005FD28DB79EB707960FB6F8949EBF0FBE1E
:100100008DBFC6E5D1E080E009D2672B682B692B53
:10011000D1F361E080E0C0D180E00AD2182F80E006
:10012000FDD19F938F937F936F931F921F93DF93C4
:10013000CF931F923DD28DB79EB709960FB6F89414
:100140009EBF0FBE8DBFDFCF1F920F920FB60F92D3
:1001500011240BB60F922F933F934F935F936F939E
:100160007F938F939F93AF93BF93EF93FF9381E818
:1001700092E0BED5FF91EF91BF91AF919F918F918A
:100180007F916F915F914F913F912F910F900BBE97
:100190000F900FBE0F901F9018951F920F920FB6E1
:1001A0000F9211240BB60F922F933F934F935F93AF
:1001B0006F937F938F939F93AF93BF93EF93FF932F
:1001C00081E892E093D5FF91EF91BF91AF919F911C
:1001D0008F917F916F915F914F913F912F910F90F0
:1001E0000BBE0F900FBE0F901F9018950895FC0145
:1001F0001082118212821382148215821682178253
:1002000020873187428753877587648781E0089507
:100210004F925F926F927F92AF92BF92CF92DF9296
:10022000EF92FF920F931F93CF93DF9300D000D0F4
:1002300000D0CDB7DEB79E838D83062F172F2901FF
:100240003A01232B242B252B09F470C0DC018D915E
:100250009D910D90BC91A02D89839A83AB83BC8323
:10026000BC01CD016F5F7F4F8F4F9F4FED81FE81AE
:100270002085318542855385DDD66B017C01ED817A
:10028000FE8184819581A681B781C816D906EA06C8
:10029000FB0609F44BC0A02EB12E00E010E023C0F5
:1002A000C701B6016F5F7F4F8F4F9F4FAD81BE81FA
:1002B00018962D913D914D915C911B97BBD6BFEF48
:1002C000AB1ABB0AC982DA82EB82FC82ED81FE8125
:1002D000C480D580E680F7806C157D058E059F056E
:1002E00029F16B017C01AD81BE811C968D919C91A1
:1002F0001D97009739F0F5012081E981FA81E80F17
:10030000F91F2083AD81BE81CD92DD92ED92FC92EA
:1003100013970F5F1F4FC801012E000CAA0BBB0BD8
:1003200084159505A605B70508F4BACF80E0269692
:100330000FB6F894DEBF0FBECDBFDF91CF911F91F6
:100340000F91FF90EF90DF90CF90BF90AF907F9094
:100350006F905F904F9008954F925F926F927F924F
:100360008F929F92AF92BF92EF92FF920F931F9343
:10037000CF93DF93EC0149015A01232B242B252B2A
:10038000E1F1062F172FE12CF12CEC85FD8530973C
:1003900039F08C819D81E80FF91F8081F8018083FD
:1003A0008C819D81AE81BF81488059806A807B802D
:1003B00084159505A605B70511F1BC01CD016F5F48
:1003C0007F4F8F4F9F4F288539854A855B8532D671
:1003D0006C837D838E839F83FFEFEF1AFF0A0F5F8D
:1003E0001F4FC7010F2C000CAA0BBB0B88159905DA
:1003F000AA05BB0550F281E003C081E001C080E0A6
:10040000DF91CF911F910F91FF90EF90BF90AF9030
:100410009F908F907F906F905F904F9008950F9373
:100420001F93FC0180819181A281B3810481158198
:1004300026813781BC01CD01601B710B820B930BB0
:100440002085318542855385F5D51F910F910895FB
:10045000CF93DF9300D0CDB7DEB71A821982811116
:100460000FC0613011F481E08A83E0E0F1E0818126
:100470008983BE016F5F7F4F8081DBD081E001C047
:1004800080E00F900F90DF91CF910895609102016D
:1004900080E0DEDF81E0089581110FC0662339F02E
:1004A000E0E0F1E0438161818081FEC00895E0E0F9
:1004B000F1E0448161818081F7C0089581E0089571
:1004C000811127C0E1E8F2E0108241835283638307
:1004D000748316821782158282E08087118620E05D
:1004E00031E040E050E063E771E083E792E07FDED7
:1004F00081E892E00DD181110EC041E050E062E749
:1005000071E081E892E0D6D391E0882329F090E071
:1005100003C090E001C090E0892F0895811104C0CC
:1005200083E792E07CCF089560E070E0CB0108950E
:10053000CF93DF931F92CDB7DEB7198281110EC022
:1005400021E030E040E050E0BE016F5F7F4F83E785
:1005500092E002DF811102C08FEF898389810F90C1
:10056000DF91CF910895CF92DF92EF92FF920F9398
:100570001F9369017A0181110BC004E610E020E0AD
:1005800030E0A60181E892E0C0D2882341F004C0A7
:10059000C12CD12C760103C0C12CD12C7601C7010E
:1005A000B6011F910F91FF90EF90DF90CF900895CB
:1005B000CF93DF93CDB7DEB7DA950FB6F894DEBFF1
:1005C0000FBECDBF9E01285F3E4FCA5FDE4F488100
:1005D0005981C650D14060E071E0CE0101964CD502
:1005E0009C01990F440B550BBE016F5F7F4FCB5F92
:1005F000DE4F8881C550D140B6DFD3950FB6F89451
:10060000DEBF0FBECDBFDF91CF9108950895FC01ED
:100610002081211109C02089318940E050E06485A2
:10062000758583E792E0F4CD0895E0DD2FDF46CFB6
:10063000089590E0DB0111962C911197211119C0BA
:10064000FC01EE0FFF1FE80FF91FEE0FFF1FEB5F1E
:10065000FE4F0190F081E02D208181E090E00C9030
:1006600002C0880F991F0A94E2F780958223808345
:1006700008952130C1F4FC01EE0FFF1FE80FF91FB0
:10068000EE0FFF1FEB5FFE4F0190F081E02D208108
:1006900081E090E0DB010C9002C0880F991F0A9462
:1006A000E2F7822B8083089590E0411118C0FC018D
:1006B000EE0FFF1FE80FF91FEE0FFF1FEB5FFE4F5E
:1006C0000280F381E02D208181E090E002C0880F5C
:1006D000991F6A95E2F780958223808308954130BF
:1006E000B1F4FC01EE0FFF1FE80FF91FEE0FFF1F23
:1006F000EB5FFE4F0280F381E02D208181E090E0EE
:1007000002C0880F991F6A95E2F7822B80830895B3
:10071000CF92DF92EF92FF920F931F93CF93DF93CD
:10072000FC01C081D0E0009709F4E3C18C01818510
:10073000882321F0813009F441C07BC081819281FE
:10074000A381B481880F991FAA1FBB1F880F991F0F
:10075000AA1FBB1FBC01CD01660F771F881F991F01
:10076000660F771F881F991FD7D39B01AC0160E0EC
:1007700074E284E79BE43CD320E030E040E05FE3B8
:10078000D2D29ED3FE01EE0FFF1FEC0FFD1FEE0F26
:10079000FF1FEE0FFF1FE15DFE4FA085B185C72E45
:1007A000D82EE92EFF24CC92A285B3856C930280CB
:1007B000F381E02D80818D7F80833BC08181928198
:1007C000A381B481880F991FAA1FBB1F880F991F8F
:1007D000AA1FBB1FBC01CD01660F771F881F991F81
:1007E0009BD39B01AC0160E074E284E79BE400D3FF
:1007F00020E030E040E05FE396D262D3FE01EE0FEE
:10080000FF1FEC0FFD1FEE0FFF1FEE0FFF1FE15D3F
:10081000FE4FA085B185C72ED82EE92EFF24CC929D
:10082000A285B3856C930280F381E02D8081826084
:100830008083F8018581823009F445C028F488233B
:1008400051F0813021F192C0833009F458C08430D6
:1008500009F471C08BC0FE01EE0FFF1FEC0FFD1FEE
:10086000EE0FFF1FEE0FFF1FE15DFE4FA481B5816C
:100870008C918B7F8C93A681B7818C9184608C93B3
:100880000680F781E02D8081826080836FC0FE0149
:10089000EE0FFF1FEC0FFD1FEE0FFF1FEE0FFF1FF0
:1008A000E15DFE4FA481B5818C918B7F8C93A681F5
:1008B000B7818C918B7F8C930680F781E02D8081AE
:1008C0008D7F808353C0FE01EE0FFF1FEC0FFD1FD5
:1008D000EE0FFF1FEE0FFF1FE15DFE4FA481B581FC
:1008E0008C918B7F8C93A681B7818C918B7F8C931D
:1008F0000680F781E02D80818260808337C0FE0111
:10090000EE0FFF1FEC0FFD1FEE0FFF1FEE0FFF1F7F
:10091000E15DFE4FA481B5818C918B7F8C93A68184
:10092000B7818C9184608C930680F781E02D808163
:100930008D7F80831BC0FE01EE0FFF1FEC0FFD1F9C
:10094000EE0FFF1FEE0FFF1FE15DFE4FA481B5818B
:100950008C9184608C93A681B7818C9184608C93F8
:100960000680F781E02D808182608083F801868196
:10097000882319F0813099F023C0FE01EE0FFF1F8C
:10098000EC0FFD1FEE0FFF1FEE0FFF1FE15DFE4F8F
:100990000680F781E02D80818F7E808311C0FE016B
:1009A000EE0FFF1FEC0FFD1FEE0FFF1FEE0FFF1FDF
:1009B000E15DFE4F0680F781E02D808180618083BC
:1009C000F80187818130D9F018F0823079F144C084
:1009D000FE01EE0FFF1FEC0FFD1FEE0FFF1FEE0FCE
:1009E000FF1FE15DFE4FA681B7818C918F7B8C93B9
:1009F0000680F781E02D80818F7D80832DC0FE01F0
:100A0000EE0FFF1FEC0FFD1FEE0FFF1FEE0FFF1F7E
:100A1000E15DFE4FA681B7818C9180648C93068046
:100A2000F781E02D80818F7D808316C0FE01EE0F5F
:100A3000FF1FEC0FFD1FEE0FFF1FEE0FFF1FE15D0D
:100A4000FE4FA681B7818C9180648C930680F781DC
:100A5000E02D808180628083F80180858130B1F053
:100A600018F0823029F147C0CE01880F991FC80FB6
:100A7000D91FCC0FDD1FCC0FDD1FC15DDE4FEC8118
:100A8000FD8180818061808380E036C0CE01880F47
:100A9000991FC80FD91FCC0FDD1FCC0FDD1FC15D03
:100AA000DE4FEC81FD8180818860808380E024C0FE
:100AB0009E01220F331FF901EC0FFD1FEE0FFF1FE8
:100AC000EE0FFF1FE15DFE4F0480F581E02D808178
:100AD00088608083C20FD31FCC0FDD1FCC0FDD1FBA
:100AE000C15DDE4FEC81FD8180818061808380E08B
:100AF00003C081E001C080E0DF91CF911F910F9191
:100B0000FF90EF90DF90CF900895AF92BF92CF9279
:100B1000DF92EF92FF920F931F93CF93DF938C019D
:100B2000EC01888190E01E8A5F874E875B8B4A8B41
:100B30002D81243041F42F81211108C0E62EF72E9B
:100B400060E070E005C0E12CF12C02C0E12CF12C3A
:100B5000452BA9F1A62EB72ED70120E030E0BC012D
:100B6000660F771F680F791F660F771F660F771F55
:100B7000615D7E4F6B01D2E0CD0ED11CE601E881B4
:100B8000F981908195FFFDCFE114F10439F4EB0177
:100B9000E881F981E5018881808305C0EB01E88166
:100BA000F9818C9180832F5F3F4FDFEFAD1ABD0A33
:100BB0001296F8014289538924173507F8F280E02C
:100BC000DF91CF911F910F91FF90EF90DF90CF9029
:100BD000BF90AF900895AF92BF92CF92DF92EF9205
:100BE000FF920F931F93CF93DF938C01EC018881C9
:100BF00090E01E8A598B488B5D8B4C8B2D81243065
:100C000041F42F81211108C0E62EF72E60E070E03C
:100C100005C0E12CF12C02C0E12CF12CF801228955
:100C20003389232BD9F1A62EB72ED70140E050E00F
:100C3000BC01660F771F680F791F660F771F660F5D
:100C4000771F615D7E4F6B01F2E0CF0ED11CE60194
:100C5000E881F981908199231CF0908195FFFACF6A
:100C6000E114F10439F4EB01E881F9818081F501A7
:100C7000808308C0EB01E881F981208130E0119682
:100C80003C932E934F5F5F4FDFEFAD1ABD0A129674
:100C9000F8018289938948175907C8F280E0DF91EB
:100CA000CF911F910F91FF90EF90DF90CF90BF9069
:100CB000AF900895FC01208130E075876487518BE7
:100CC000408B558B448BF901EE0FFF1FE20FF31F92
:100CD000EE0FFF1FEE0FFF1FE15DFE4F0480F58159
:100CE000E02D80818068808380E008958FCC089516
:100CF0000F931F93CF93DF93EC01488959896C853B
:100D00007D8504E610E020E030E065DFCE017FDC89
:100D1000DF91CF911F910F91089587DCD6D9DDD94E
:100D200080E090E008955058BB27AA270ED048C114
:100D300039D130F03ED120F031F49F3F11F41EF450
:100D40002EC10EF4E095E7FB24C1E92F4AD180F3D0
:100D5000BA17620773078407950718F071F49EF5B8
:100D600062C10EF4E0950B2EBA2FA02D0B01B90134
:100D700090010C01CA01A0011124FF27591B99F011
:100D8000593F50F4503E68F11A16F040A22F232F1D
:100D9000342F4427585FF3CF469537952795A7956D
:100DA000F0405395C9F77EF41F16BA0B620B730B14
:100DB000840BBAF09150A1F0FF0FBB1F661F771F85
:100DC000881FC2F70EC0BA0F621F731F841F48F43A
:100DD000879577956795B795F7959E3F08F0B3CFC0
:100DE0009395880F08F09927EE0F979587950895AA
:100DF0000CD0E6C0DED040F0D5D030F021F45F3F1B
:100E000019F0C7C0511110C1CAC0EBD098F3992393
:100E1000C9F35523B1F3951B550BBB27AA276217BE
:100E20007307840738F09F5F5F4F220F331F441F03
:100E3000AA1FA9F333D00E2E3AF0E0E830D091503B
:100E40005040E695001CCAF729D0FE2F27D0660F28
:100E5000771F881FBB1F261737074807AB07B0E867
:100E600009F0BB0B802DBF01FF2793585F4F2AF07D
:100E70009E3F510568F08DC0D7C05F3FECF3983EB0
:100E8000DCF3869577956795B795F7959F5FC9F7DA
:100E9000880F911D9695879597F90895E1E0660F63
:100EA000771F881FBB1F621773078407BA0720F0DC
:100EB000621B730B840BBA0BEE1F88F7E095089545
:100EC00098D088F09F5790F0B92F9927B751A0F08C
:100ED000D1F0660F771F881F991F1AF0BA95C9F7CE
:100EE00012C0B13081F09FD0B1E008959CC0672F4F
:100EF000782F8827B85F39F0B93FCCF3869577957E
:100F00006795B395D9F73EF4909580957095619566
:100F10007F4F8F4F9F4F0895E89409C097FB3EF491
:100F200090958095709561957F4F8F4F9F4F992336
:100F3000A9F0F92F96E9BB279395F69587957795B4
:100F40006795B795F111F8CFFAF4BB0F11F460FF74
:100F50001BC06F5F7F4F8F4F9F4F16C0882311F0CC
:100F600096E911C0772321F09EE8872F762F05C0E0
:100F7000662371F096E8862F70E060E02AF09A957B
:100F8000660F771F881FDAF7880F9695879597F970
:100F9000089597F99F6780E870E060E008959FEFFB
:100FA00080EC089500240A94161617061806090600
:100FB000089500240A9412161306140605060895CF
:100FC000092E0394000C11F4882352F0BB0F40F457
:100FD000BF2B11F460FF04C06F5F7F4F8F4F9F4F97
:100FE000089557FD9058440F551F59F05F3F71F019
:100FF0004795880F97FB991F61F09F3F79F0879580
:101000000895121613061406551FF2CF4695F1DF08
:1010100008C0161617061806991FF1CF8695710598
:10102000610508940895E894BB2766277727CB01CC
:1010300097F90895A1E21A2EAA1BBB1BFD010DC052
:10104000AA1FBB1FEE1FFF1FA217B307E407F50778
:1010500020F0A21BB30BE40BF50B661F771F881F54
:10106000991F1A9469F760957095809590959B01EA
:10107000AC01BD01CF0108950F931F93CF93DF9370
:10108000CDB7DEB72E970FB6F894DEBF0FBECDBF3B
:101090008C01FA0186E08C831A83098377FF02C0F2
:1010A00060E070E8CB0101979E838D83A901BF01A9
:1010B000CE01019619D04D815E8157FD0AC02F8166
:1010C0003885421753070CF49A01F801E20FF31F19
:1010D00010822E960FB6F894DEBF0FBECDBFDF9103
:1010E000CF911F910F9108952F923F924F925F924F
:1010F0006F927F928F929F92AF92BF92CF92DF9228
:10110000EF92FF920F931F93CF93DF93CDB7DEB78C
:101110002B970FB6F894DEBF0FBECDBF6C017B01DD
:101120008A01FC0117821682838181FFBFC1CE0133
:1011300001963C01F6019381F70193FD859193FFA0
:1011400081917F01882309F4ADC1853239F493FD83
:10115000859193FF81917F01853221F4B60190E062
:10116000D6D1E8CF912C212C312CFFE1F315D8F00A
:101170008B3279F038F4803279F08332A1F4232D68
:1011800020611DC08D3261F0803369F4232D216010
:1011900016C0832D8260382EE32DE4603E2E2AC0D7
:1011A000F32DF8601DC037FC2DC020ED280F2A302C
:1011B00040F08E32B9F436FC75C1232D2064322EF6
:1011C00019C036FE06C08AE0989E200D1124922E8A
:1011D00011C0EAE02E9E200D1124222EF32DF06284
:1011E0003F2E08C08C3621F4832D8068382E02C033
:1011F000883641F4F70193FD859193FF81917F013A
:101200008111B3CF982F9F7D9554933028F40C5FB4
:101210001F4F9FE399830DC0833631F0833771F000
:10122000833509F055C020C0F801808189830E5FA5
:101230001F4F88248394912C530112C02801F2E09F
:101240004F0E511CF801A080B18036FE03C0692DFD
:1012500070E002C06FEF7FEFC5014ED14C018201FB
:10126000F32DFF773F2E15C0280122E0420E511CBE
:10127000F801A080B18036FE03C0692D70E002C085
:101280006FEF7FEFC5012DD14C01F32DF0683F2E9C
:10129000820133FC19C0822D90E088169906A0F4D3
:1012A000B60180E290E033D12A94F5CFF50137FC06
:1012B000859137FE81915F01B60190E028D1211020
:1012C0002A9421E0821A91088114910479F7E1C0EF
:1012D000843611F0893639F5F80137FE07C0608190
:1012E0007181828193810C5F1F4F08C06081718181
:1012F000072E000C880B990B0E5F1F4FF32DFF7606
:101300003F2E97FF09C090958095709561957F4F0E
:101310008F4F9F4FF0683F2E2AE030E0A30133D17A
:10132000882E861844C0853731F4232D2F7EB22EA7
:101330002AE030E025C0932D997FB92E8F36C1F079
:1013400018F4883579F0AEC0803719F0883721F06D
:10135000A9C0E92FE061BE2EB4FE0DC0FB2DF460E4
:10136000BF2E09C034FE0AC0292F2660B22E06C047
:1013700028E030E005C020E130E002C020E132E0AA
:10138000F801B7FE07C060817181828193810C5F93
:101390001F4F06C06081718180E090E00E5F1F4F9B
:1013A000A301F1D0882E8618FB2DFF773F2E36FE45
:1013B0000DC0232D2E7FA22E891458F434FE0BC0AD
:1013C00032FC09C0832D8E7EA82E05C0B82CA32C1C
:1013D00003C0B82C01C0B92CA4FE0FC0FE01E80D5B
:1013E000F11D8081803321F49A2D997EA92E09C0A8
:1013F000A2FE06C0B394B39404C08A2D867809F087
:10140000B394A3FC10C0A0FE06C0B21480F4280C54
:10141000922C9B180DC0B21458F4B60180E290E0F3
:1014200076D0B394F8CFB21418F42B1802C0982CCD
:10143000212CA4FE0FC0B60180E390E068D0A2FE8C
:1014400016C0A1FC03C088E790E002C088E590E0E8
:10145000B6010CC08A2D867851F0A1FE02C08BE245
:1014600001C080E2A7FC8DE2B60190E050D0891463
:1014700030F4B60180E390E04AD09A94F8CF8A9491
:10148000F301E80DF11D8081B60190E040D081109C
:10149000F6CF222009F44ECEB60180E290E037D09C
:1014A0002A94F7CFF6018681978102C08FEF9FEFD4
:1014B0002B960FB6F894DEBF0FBECDBFDF91CF9154
:1014C0001F910F91FF90EF90DF90CF90BF90AF9062
:1014D0009F908F907F906F905F904F903F902F9054
:1014E0000895FC010590615070400110D8F7809577
:1014F00090958E0F9F1F0895FC01615070400190E0
:101500000110D8F7809590958E0F9F1F08950F9327
:101510001F93CF93DF93FB01238121FD03C08FEF46
:101520009FEF2CC022FF16C0468157812481358150
:101530004217530744F4A081B1819D012F5F3F4FB3
:10154000318320838C93268137812F5F3F4F3783F0
:10155000268314C08B01EC01FB010084F185E02D92
:101560000995892BE1F6D80116968D919C911797D4
:10157000019617969C938E931697CE01DF91CF918B
:101580001F910F910895FA01AA27283051F12031B7
:1015900081F1E8946F936E7F6E5F7F4F8F4F9F4F07
:1015A000AF4FB1E03ED0B4E03CD0670F781F891F49
:1015B0009A1FA11D680F791F8A1F911DA11D6A0F17
:1015C000711D811D911DA11D20D009F468943F91CA
:1015D0002AE0269F11243019305D3193DEF6CF01C9
:1015E0000895462F4770405D4193B3E00FD0C9F78F
:1015F000F6CF462F4F70405D4A3318F0495D31FDFC
:101600004052419302D0A9F7EACFB4E0A69597954E
:10161000879577956795BA95C9F700976105710524
:1016200008959B01AC010A2E06945795479537956E
:101630002795BA95C9F7620F731F841F951FA01DC8
:061640000895F894FFCFAD
:1016460000000101003A003B00390037003800363F
:101656000034003500330031003200300022002310
:101666000021006100620020006400650063002C18
:10167600002B002A009500900029009C009B009AF0
:10168600009D0098009900626175643A20256C758A
:10169600206270730A006563686F203A2025632C08
:1016A60020617661696C61626C65203A2025640A66
:0216B600000032
:00000001FF
